{
  "contractName": "EcommerceStore",
  "abi": [
    {
      "constant": true,
      "inputs": [],
      "name": "productIndex",
      "outputs": [
        {
          "name": "",
          "type": "uint256"
        }
      ],
      "payable": false,
      "stateMutability": "view",
      "type": "function"
    },
    {
      "constant": false,
      "inputs": [],
      "name": "Ecommercestrore",
      "outputs": [],
      "payable": false,
      "stateMutability": "nonpayable",
      "type": "function"
    },
    {
      "constant": false,
      "inputs": [
        {
          "name": "_name",
          "type": "string"
        },
        {
          "name": "_category",
          "type": "string"
        },
        {
          "name": "_imageLink",
          "type": "string"
        },
        {
          "name": "_descLink",
          "type": "uint256"
        },
        {
          "name": "_startTime",
          "type": "uint256"
        },
        {
          "name": "_price",
          "type": "uint256"
        },
        {
          "name": "_condition",
          "type": "uint256"
        }
      ],
      "name": "addProductToStore",
      "outputs": [],
      "payable": false,
      "stateMutability": "nonpayable",
      "type": "function"
    },
    {
      "constant": true,
      "inputs": [
        {
          "name": "_id",
          "type": "uint256"
        }
      ],
      "name": "getProduct",
      "outputs": [
        {
          "name": "",
          "type": "uint256"
        },
        {
          "name": "",
          "type": "string"
        },
        {
          "name": "",
          "type": "string"
        },
        {
          "name": "",
          "type": "string"
        },
        {
          "name": "",
          "type": "uint256"
        },
        {
          "name": "",
          "type": "uint256"
        },
        {
          "name": "",
          "type": "uint256"
        },
        {
          "name": "",
          "type": "uint8"
        },
        {
          "name": "",
          "type": "address"
        }
      ],
      "payable": false,
      "stateMutability": "view",
      "type": "function"
    }
  ],
  "bytecode": "0x608060405234801561001057600080fd5b50610a60806100206000396000f300608060405260043610610062576000357c0100000000000000000000000000000000000000000000000000000000900463ffffffff168063011976d914610067578063579c323914610184578063b9db15b41461019b578063c897d5a61461037d575b600080fd5b34801561007357600080fd5b50610182600480360381019080803590602001908201803590602001908080601f0160208091040260200160405190810160405280939291908181526020018383808284378201915050505050509192919290803590602001908201803590602001908080601f0160208091040260200160405190810160405280939291908181526020018383808284378201915050505050509192919290803590602001908201803590602001908080601f0160208091040260200160405190810160405280939291908181526020018383808284378201915050505050509192919290803590602001909291908035906020019092919080359060200190929190803590602001909291905050506103a8565b005b34801561019057600080fd5b50610199610581565b005b3480156101a757600080fd5b506101c66004803603810190808035906020019092919050505061058a565b604051808a81526020018060200180602001806020018981526020018881526020018781526020018660018111156101fa57fe5b60ff1681526020018573ffffffffffffffffffffffffffffffffffffffff1673ffffffffffffffffffffffffffffffffffffffff16815260200184810384528c818151815260200191508051906020019080838360005b8381101561026c578082015181840152602081019050610251565b50505050905090810190601f1680156102995780820380516001836020036101000a031916815260200191505b5084810383528b818151815260200191508051906020019080838360005b838110156102d25780820151818401526020810190506102b7565b50505050905090810190601f1680156102ff5780820380516001836020036101000a031916815260200191505b5084810382528a818151815260200191508051906020019080838360005b8381101561033857808201518184015260208101905061031d565b50505050905090810190601f1680156103655780820380516001836020036101000a031916815260200191505b509c5050505050505050505050505060405180910390f35b34801561038957600080fd5b5061039261091b565b6040518082815260200191505060405180910390f35b6103b0610921565b6001600080828254019250508190555061012060405190810160405280600054815260200189815260200188815260200187815260200186815260200185815260200184815260200183600181111561040557fe5b600181111561041057fe5b8152602001600073ffffffffffffffffffffffffffffffffffffffff16815250905080600160003373ffffffffffffffffffffffffffffffffffffffff1673ffffffffffffffffffffffffffffffffffffffff1681526020019081526020016000206000805481526020019081526020016000206000820151816000015560208201518160010190805190602001906104aa92919061098f565b5060408201518160020190805190602001906104c792919061098f565b5060608201518160030190805190602001906104e492919061098f565b506080820151816004015560a0820151816005015560c0820151816006015560e08201518160070160006101000a81548160ff0219169083600181111561052757fe5b02179055506101008201518160070160016101000a81548173ffffffffffffffffffffffffffffffffffffffff021916908373ffffffffffffffffffffffffffffffffffffffff1602179055509050505050505050505050565b60008081905550565b6000606080606060008060008060006105a1610921565b60016000600260008e815260200190815260200160002060009054906101000a900473ffffffffffffffffffffffffffffffffffffffff1673ffffffffffffffffffffffffffffffffffffffff1673ffffffffffffffffffffffffffffffffffffffff16815260200190815260200160002060008c8152602001908152602001600020610120604051908101604052908160008201548152602001600182018054600181600116156101000203166002900480601f0160208091040260200160405190810160405280929190818152602001828054600181600116156101000203166002900480156106d45780601f106106a9576101008083540402835291602001916106d4565b820191906000526020600020905b8154815290600101906020018083116106b757829003601f168201915b50505050508152602001600282018054600181600116156101000203166002900480601f0160208091040260200160405190810160405280929190818152602001828054600181600116156101000203166002900480156107765780601f1061074b57610100808354040283529160200191610776565b820191906000526020600020905b81548152906001019060200180831161075957829003601f168201915b50505050508152602001600382018054600181600116156101000203166002900480601f0160208091040260200160405190810160405280929190818152602001828054600181600116156101000203166002900480156108185780601f106107ed57610100808354040283529160200191610818565b820191906000526020600020905b8154815290600101906020018083116107fb57829003601f168201915b505050505081526020016004820154815260200160058201548152602001600682015481526020016007820160009054906101000a900460ff16600181111561085d57fe5b600181111561086857fe5b81526020016007820160019054906101000a900473ffffffffffffffffffffffffffffffffffffffff1673ffffffffffffffffffffffffffffffffffffffff1673ffffffffffffffffffffffffffffffffffffffff16815250509050806000015181602001518260400151836060015184608001518560a001518660c001518760e00151886101000151879750869650859550995099509950995099509950995099509950509193959799909294969850565b60005481565b61012060405190810160405280600081526020016060815260200160608152602001606081526020016000815260200160008152602001600081526020016000600181111561096c57fe5b8152602001600073ffffffffffffffffffffffffffffffffffffffff1681525090565b828054600181600116156101000203166002900490600052602060002090601f016020900481019282601f106109d057805160ff19168380011785556109fe565b828001600101855582156109fe579182015b828111156109fd5782518255916020019190600101906109e2565b5b509050610a0b9190610a0f565b5090565b610a3191905b80821115610a2d576000816000905550600101610a15565b5090565b905600a165627a7a7230582056c6ea6db11d173ac70631648fa6962c049bf2bb2edc98d3e6684a55f34875710029",
  "source": "pragma solidity ^0.4.21;\r\ncontract EcommerceStore{\r\n\r\n\r\n    enum  ProductCondition {New,Used}\r\n    uint public productIndex;\r\n\r\n    mapping (address => mapping (uint => Product)) store;\r\n    mapping (uint => address) productIdInStore;\r\n    struct Product{\r\n        uint id;\r\n        string name;\r\n        string category;\r\n        string imageLink;\r\n        uint descLink;\r\n        uint startTime;\r\n        uint price;\r\n        ProductCondition condition;\r\n        address buyer;\r\n\r\n    }\r\n\r\n    function Ecommercestrore() public {\r\n         productIndex = 0;\r\n\r\n    }\r\n\r\n\r\n\r\n    function addProductToStore(string _name,string _category,string _imageLink\r\n    ,uint _descLink, uint _startTime,uint _price,uint _condition) public {\r\n\r\n        productIndex += 1;\r\n\r\nProduct memory product = Product(productIndex,_name, _category, _imageLink,_descLink,_startTime,_price,ProductCondition(_condition),0);\r\n\r\n store[msg.sender][productIndex] = product;\r\n}\r\n\r\nfunction getProduct(uint _id) public view\r\n\r\nreturns (uint,string,string,string,uint,uint,uint,ProductCondition,address)\r\n\r\n{\r\n\r\n Product memory product = store[productIdInStore[_id]][_id];\r\n\r\n    return (product.id,product.name,product.category,product.imageLink,product.descLink\r\n    ,product.startTime,product.price,product.condition,product.buyer);\r\n}\r\n}\r\n",
  "sourcePath": "C:\\Users\\Pranav Maheshwari\\Desktop\\ebay\\contracts\\EcommerceStore.sol",
  "compiler": {
    "name": "solc",
    "version": "0.4.24+commit.e67f0147.Emscripten.clang"
  },
  "schemaVersion": "2.0.1",
  "updatedAt": "2018-08-20T17:35:30.331Z"
}